{
  "_format": "hh-sol-artifact-1",
  "contractName": "Voting",
  "sourceName": "contracts/Voting.sol",
  "abi": [
    {
      "inputs": [
        {
          "internalType": "string",
          "name": "name",
          "type": "string"
        }
      ],
      "name": "addParties",
      "outputs": [],
      "stateMutability": "nonpayable",
      "type": "function"
    },
    {
      "inputs": [],
      "name": "checkAdmin",
      "outputs": [
        {
          "internalType": "bool",
          "name": "isAdmin",
          "type": "bool"
        }
      ],
      "stateMutability": "view",
      "type": "function"
    },
    {
      "inputs": [],
      "name": "endElection",
      "outputs": [
        {
          "internalType": "enum Voting.Status",
          "name": "",
          "type": "uint8"
        }
      ],
      "stateMutability": "nonpayable",
      "type": "function"
    },
    {
      "inputs": [],
      "name": "getParties",
      "outputs": [
        {
          "components": [
            {
              "internalType": "uint256",
              "name": "id",
              "type": "uint256"
            },
            {
              "internalType": "string",
              "name": "name",
              "type": "string"
            },
            {
              "internalType": "uint256",
              "name": "voteCount",
              "type": "uint256"
            }
          ],
          "internalType": "struct Voting.Party[]",
          "name": "",
          "type": "tuple[]"
        }
      ],
      "stateMutability": "view",
      "type": "function"
    },
    {
      "inputs": [],
      "name": "getStatus",
      "outputs": [
        {
          "internalType": "enum Voting.Status",
          "name": "",
          "type": "uint8"
        }
      ],
      "stateMutability": "view",
      "type": "function"
    },
    {
      "inputs": [],
      "name": "getVoteCount",
      "outputs": [
        {
          "internalType": "uint256",
          "name": "",
          "type": "uint256"
        }
      ],
      "stateMutability": "view",
      "type": "function"
    },
    {
      "inputs": [],
      "name": "getWinnerParty",
      "outputs": [
        {
          "internalType": "string",
          "name": "winner",
          "type": "string"
        }
      ],
      "stateMutability": "view",
      "type": "function"
    },
    {
      "inputs": [
        {
          "internalType": "uint256",
          "name": "",
          "type": "uint256"
        }
      ],
      "name": "parties",
      "outputs": [
        {
          "internalType": "uint256",
          "name": "id",
          "type": "uint256"
        },
        {
          "internalType": "string",
          "name": "name",
          "type": "string"
        },
        {
          "internalType": "uint256",
          "name": "voteCount",
          "type": "uint256"
        }
      ],
      "stateMutability": "view",
      "type": "function"
    },
    {
      "inputs": [],
      "name": "partyCount",
      "outputs": [
        {
          "internalType": "uint256",
          "name": "",
          "type": "uint256"
        }
      ],
      "stateMutability": "view",
      "type": "function"
    },
    {
      "inputs": [],
      "name": "startElection",
      "outputs": [
        {
          "internalType": "enum Voting.Status",
          "name": "",
          "type": "uint8"
        }
      ],
      "stateMutability": "nonpayable",
      "type": "function"
    },
    {
      "inputs": [
        {
          "internalType": "uint256",
          "name": "choice",
          "type": "uint256"
        },
        {
          "internalType": "uint256",
          "name": "UID",
          "type": "uint256"
        }
      ],
      "name": "vote",
      "outputs": [],
      "stateMutability": "nonpayable",
      "type": "function"
    },
    {
      "inputs": [],
      "name": "voteCount",
      "outputs": [
        {
          "internalType": "uint256",
          "name": "",
          "type": "uint256"
        }
      ],
      "stateMutability": "view",
      "type": "function"
    },
    {
      "inputs": [
        {
          "internalType": "uint256",
          "name": "",
          "type": "uint256"
        }
      ],
      "name": "voters",
      "outputs": [
        {
          "internalType": "bool",
          "name": "isVoted",
          "type": "bool"
        },
        {
          "internalType": "uint256",
          "name": "vote",
          "type": "uint256"
        }
      ],
      "stateMutability": "view",
      "type": "function"
    }
  ],
  "bytecode": "0x60806040526000805560006001556000600260006101000a81548160ff02191690836001811115610059577f4e487b7100000000000000000000000000000000000000000000000000000000600052602160045260246000fd5b021790555073d81764e8563765259d1da8ec86c6e304d8cbac1b600560006101000a81548173ffffffffffffffffffffffffffffffffffffffff021916908373ffffffffffffffffffffffffffffffffffffffff1602179055503480156100bf57600080fd5b506119f0806100cf6000396000f3fe608060405234801561001057600080fd5b50600436106100cf5760003560e01c80639eb8e7251161008c578063b384abef11610066578063b384abef146101f4578063c638407114610210578063da58c7d91461022e578063e7b3387c1461025f576100cf565b80639eb8e7251461019a578063a8311aa8146101b8578063ab150226146101d6576100cf565b806312d4378d146100d45780634e69d560146100f257806359f784681461011057806362d73eb81461012e57806370651a181461014c5780639e7560461461017e575b600080fd5b6100dc61027d565b6040516100e9919061153e565b60405180910390f35b6100fa61048f565b6040516101079190611523565b60405180910390f35b6101186104a6565b6040516101259190611523565b60405180910390f35b610136610568565b6040516101439190611523565b60405180910390f35b61016660048036038101906101619190611245565b61062a565b604051610175939291906115fb565b60405180910390f35b61019860048036038101906101939190611204565b6106ec565b005b6101a26109d0565b6040516101af91906115e0565b60405180910390f35b6101c06109d6565b6040516101cd91906114bd565b60405180910390f35b6101de610adb565b6040516101eb91906114df565b60405180910390f35b61020e6004803603810190610209919061126e565b610b44565b005b610218610e95565b60405161022591906115e0565b60405180910390f35b61024860048036038101906102439190611245565b610e9b565b6040516102569291906114fa565b60405180910390f35b610267610ecc565b60405161027491906115e0565b60405180910390f35b606060008060018111156102ba577f4e487b7100000000000000000000000000000000000000000000000000000000600052602160045260246000fd5b8160018111156102f3577f4e487b7100000000000000000000000000000000000000000000000000000000600052602160045260246000fd5b14156103bf57806001811115610332577f4e487b7100000000000000000000000000000000000000000000000000000000600052602160045260246000fd5b600260009054906101000a900460ff16600181111561037a577f4e487b7100000000000000000000000000000000000000000000000000000000600052602160045260246000fd5b146103ba576040517f08c379a00000000000000000000000000000000000000000000000000000000081526004016103b1906115c0565b60405180910390fd5b610481565b8060018111156103f8577f4e487b7100000000000000000000000000000000000000000000000000000000600052602160045260246000fd5b600260009054906101000a900460ff166001811115610440577f4e487b7100000000000000000000000000000000000000000000000000000000600052602160045260246000fd5b14610480576040517f08c379a000000000000000000000000000000000000000000000000000000000815260040161047790611580565b60405180910390fd5b5b610489610ed5565b91505090565b6000600260009054906101000a900460ff16905090565b6000600560009054906101000a900473ffffffffffffffffffffffffffffffffffffffff1673ffffffffffffffffffffffffffffffffffffffff163373ffffffffffffffffffffffffffffffffffffffff161461050257600080fd5b6000600260006101000a81548160ff0219169083600181111561054e577f4e487b7100000000000000000000000000000000000000000000000000000000600052602160045260246000fd5b0217905550600260009054906101000a900460ff16905090565b6000600560009054906101000a900473ffffffffffffffffffffffffffffffffffffffff1673ffffffffffffffffffffffffffffffffffffffff163373ffffffffffffffffffffffffffffffffffffffff16146105c457600080fd5b6001600260006101000a81548160ff02191690836001811115610610577f4e487b7100000000000000000000000000000000000000000000000000000000600052602160045260246000fd5b0217905550600260009054906101000a900460ff16905090565b6004818154811061063a57600080fd5b906000526020600020906003020160009150905080600001549080600101805461066390611772565b80601f016020809104026020016040519081016040528092919081815260200182805461068f90611772565b80156106dc5780601f106106b1576101008083540402835291602001916106dc565b820191906000526020600020905b8154815290600101906020018083116106bf57829003601f168201915b5050505050908060020154905083565b6000806001811115610727577f4e487b7100000000000000000000000000000000000000000000000000000000600052602160045260246000fd5b816001811115610760577f4e487b7100000000000000000000000000000000000000000000000000000000600052602160045260246000fd5b141561082c5780600181111561079f577f4e487b7100000000000000000000000000000000000000000000000000000000600052602160045260246000fd5b600260009054906101000a900460ff1660018111156107e7577f4e487b7100000000000000000000000000000000000000000000000000000000600052602160045260246000fd5b14610827576040517f08c379a000000000000000000000000000000000000000000000000000000000815260040161081e906115c0565b60405180910390fd5b6108ee565b806001811115610865577f4e487b7100000000000000000000000000000000000000000000000000000000600052602160045260246000fd5b600260009054906101000a900460ff1660018111156108ad577f4e487b7100000000000000000000000000000000000000000000000000000000600052602160045260246000fd5b146108ed576040517f08c379a00000000000000000000000000000000000000000000000000000000081526004016108e490611580565b60405180910390fd5b5b600560009054906101000a900473ffffffffffffffffffffffffffffffffffffffff1673ffffffffffffffffffffffffffffffffffffffff163373ffffffffffffffffffffffffffffffffffffffff161461094857600080fd5b6109506110b1565b600460405180606001604052806001548152602001848152602001600081525090806001815401808255809150506001900390600052602060002090600302016000909190919091506000820151816000015560208201518160010190805190602001906109bf9291906110e4565b506040820151816002015550505050565b60015481565b60606004805480602002602001604051908101604052809291908181526020016000905b82821015610ad2578382906000526020600020906003020160405180606001604052908160008201548152602001600182018054610a3790611772565b80601f0160208091040260200160405190810160405280929190818152602001828054610a6390611772565b8015610ab05780601f10610a8557610100808354040283529160200191610ab0565b820191906000526020600020905b815481529060010190602001808311610a9357829003601f168201915b50505050508152602001600282015481525050815260200190600101906109fa565b50505050905090565b6000600560009054906101000a900473ffffffffffffffffffffffffffffffffffffffff1673ffffffffffffffffffffffffffffffffffffffff163373ffffffffffffffffffffffffffffffffffffffff161415610b3c5760019050610b41565b600090505b90565b600160006001811115610b80577f4e487b7100000000000000000000000000000000000000000000000000000000600052602160045260246000fd5b816001811115610bb9577f4e487b7100000000000000000000000000000000000000000000000000000000600052602160045260246000fd5b1415610c8557806001811115610bf8577f4e487b7100000000000000000000000000000000000000000000000000000000600052602160045260246000fd5b600260009054906101000a900460ff166001811115610c40577f4e487b7100000000000000000000000000000000000000000000000000000000600052602160045260246000fd5b14610c80576040517f08c379a0000000000000000000000000000000000000000000000000000000008152600401610c77906115c0565b60405180910390fd5b610d47565b806001811115610cbe577f4e487b7100000000000000000000000000000000000000000000000000000000600052602160045260246000fd5b600260009054906101000a900460ff166001811115610d06577f4e487b7100000000000000000000000000000000000000000000000000000000600052602160045260246000fd5b14610d46576040517f08c379a0000000000000000000000000000000000000000000000000000000008152600401610d3d90611580565b60405180910390fd5b5b600015156003600084815260200190815260200160002060000160009054906101000a900460ff16151514610db1576040517f08c379a0000000000000000000000000000000000000000000000000000000008152600401610da8906115a0565b60405180910390fd5b6004805490508310610df8576040517f08c379a0000000000000000000000000000000000000000000000000000000008152600401610def90611560565b60405180910390fd5b60016003600084815260200190815260200160002060000160006101000a81548160ff021916908315150217905550610e2f6110cb565b60048381548110610e69577f4e487b7100000000000000000000000000000000000000000000000000000000600052603260045260246000fd5b90600052602060002090600302016002016000815480929190610e8b906117d5565b9190505550505050565b60005481565b60036020528060005260406000206000915090508060000160009054906101000a900460ff16908060010154905082565b60008054905090565b606060006040518060400160405280600481526020017f4452415700000000000000000000000000000000000000000000000000000000815250915060005b6004805490508110156110ac578160048281548110610f5c577f4e487b7100000000000000000000000000000000000000000000000000000000600052603260045260246000fd5b90600052602060002090600302016002015411156110995760048181548110610fae577f4e487b7100000000000000000000000000000000000000000000000000000000600052603260045260246000fd5b906000526020600020906003020160020154915060048181548110610ffc577f4e487b7100000000000000000000000000000000000000000000000000000000600052603260045260246000fd5b9060005260206000209060030201600101805461101890611772565b80601f016020809104026020016040519081016040528092919081815260200182805461104490611772565b80156110915780601f1061106657610100808354040283529160200191611091565b820191906000526020600020905b81548152906001019060200180831161107457829003601f168201915b505050505092505b80806110a4906117d5565b915050610f14565b505090565b600160008154809291906110c4906117d5565b9190505550565b6000808154809291906110dd906117d5565b9190505550565b8280546110f090611772565b90600052602060002090601f0160209004810192826111125760008555611159565b82601f1061112b57805160ff1916838001178555611159565b82800160010185558215611159579182015b8281111561115857825182559160200191906001019061113d565b5b509050611166919061116a565b5090565b5b8082111561118357600081600090555060010161116b565b5090565b600061119a6111958461165e565b611639565b9050828152602081018484840111156111b257600080fd5b6111bd848285611730565b509392505050565b600082601f8301126111d657600080fd5b81356111e6848260208601611187565b91505092915050565b6000813590506111fe816119a3565b92915050565b60006020828403121561121657600080fd5b600082013567ffffffffffffffff81111561123057600080fd5b61123c848285016111c5565b91505092915050565b60006020828403121561125757600080fd5b6000611265848285016111ef565b91505092915050565b6000806040838503121561128157600080fd5b600061128f858286016111ef565b92505060206112a0858286016111ef565b9150509250929050565b60006112b6838361144f565b905092915050565b60006112c98261169f565b6112d381856116c2565b9350836020820285016112e58561168f565b8060005b85811015611321578484038952815161130285826112aa565b945061130d836116b5565b925060208a019950506001810190506112e9565b50829750879550505050505092915050565b61133c816116f5565b82525050565b61134b8161171e565b82525050565b600061135c826116aa565b61136681856116d3565b935061137681856020860161173f565b61137f816118da565b840191505092915050565b6000611395826116aa565b61139f81856116e4565b93506113af81856020860161173f565b6113b8816118da565b840191505092915050565b60006113d0601f836116e4565b91506113db826118eb565b602082019050919050565b60006113f3601d836116e4565b91506113fe82611914565b602082019050919050565b60006114166016836116e4565b91506114218261193d565b602082019050919050565b6000611439601d836116e4565b915061144482611966565b602082019050919050565b6000606083016000830151611467600086018261149f565b506020830151848203602086015261147f8282611351565b9150506040830151611494604086018261149f565b508091505092915050565b6114a881611714565b82525050565b6114b781611714565b82525050565b600060208201905081810360008301526114d781846112be565b905092915050565b60006020820190506114f46000830184611333565b92915050565b600060408201905061150f6000830185611333565b61151c60208301846114ae565b9392505050565b60006020820190506115386000830184611342565b92915050565b60006020820190508181036000830152611558818461138a565b905092915050565b60006020820190508181036000830152611579816113c3565b9050919050565b60006020820190508181036000830152611599816113e6565b9050919050565b600060208201905081810360008301526115b981611409565b9050919050565b600060208201905081810360008301526115d98161142c565b9050919050565b60006020820190506115f560008301846114ae565b92915050565b600060608201905061161060008301866114ae565b8181036020830152611622818561138a565b905061163160408301846114ae565b949350505050565b6000611643611654565b905061164f82826117a4565b919050565b6000604051905090565b600067ffffffffffffffff821115611679576116786118ab565b5b611682826118da565b9050602081019050919050565b6000819050602082019050919050565b600081519050919050565b600081519050919050565b6000602082019050919050565b600082825260208201905092915050565b600082825260208201905092915050565b600082825260208201905092915050565b60008115159050919050565b600081905061170f8261198f565b919050565b6000819050919050565b600061172982611701565b9050919050565b82818337600083830152505050565b60005b8381101561175d578082015181840152602081019050611742565b8381111561176c576000848401525b50505050565b6000600282049050600182168061178a57607f821691505b6020821081141561179e5761179d61187c565b5b50919050565b6117ad826118da565b810181811067ffffffffffffffff821117156117cc576117cb6118ab565b5b80604052505050565b60006117e082611714565b91507fffffffffffffffffffffffffffffffffffffffffffffffffffffffffffffffff8214156118135761181261181e565b5b600182019050919050565b7f4e487b7100000000000000000000000000000000000000000000000000000000600052601160045260246000fd5b7f4e487b7100000000000000000000000000000000000000000000000000000000600052602160045260246000fd5b7f4e487b7100000000000000000000000000000000000000000000000000000000600052602260045260246000fd5b7f4e487b7100000000000000000000000000000000000000000000000000000000600052604160045260246000fd5b6000601f19601f8301169050919050565b7f506c6561736520456e7465722056616c69642050617274792043686f69636500600082015250565b7f536f7272792c20566f74696e6720686173206e6f742073746172746564000000600082015250565b7f596f75206861766520616c726561647920766f74656400000000000000000000600082015250565b7f536f7272792c20566f74696e6720697320696e2070726f67726573732e000000600082015250565b600281106119a05761199f61184d565b5b50565b6119ac81611714565b81146119b757600080fd5b5056fea2646970667358221220b13fe9ccfa69f07cdff88fe7b41370e1a9a3f75a8387ad4cb77810bd239a7f5564736f6c63430008010033",
  "linkReferences": {},
  "deployedLinkReferences": {}
}